{
  "contractName": "CharityOrganizations",
  "abi": [
    {
      "inputs": [
        {
          "internalType": "address",
          "name": "accountAddress",
          "type": "address"
        },
        {
          "internalType": "string",
          "name": "email",
          "type": "string"
        },
        {
          "internalType": "string",
          "name": "name",
          "type": "string"
        },
        {
          "internalType": "string",
          "name": "description",
          "type": "string"
        },
        {
          "internalType": "string",
          "name": "phoneNumber",
          "type": "string"
        }
      ],
      "name": "addCharityOrganization",
      "outputs": [],
      "stateMutability": "nonpayable",
      "type": "function"
    },
    {
      "inputs": [
        {
          "internalType": "address",
          "name": "accountAddress",
          "type": "address"
        },
        {
          "internalType": "string",
          "name": "email",
          "type": "string"
        },
        {
          "internalType": "string",
          "name": "name",
          "type": "string"
        },
        {
          "internalType": "string",
          "name": "description",
          "type": "string"
        },
        {
          "internalType": "string",
          "name": "phoneNumber",
          "type": "string"
        }
      ],
      "name": "updateCharityOrganization",
      "outputs": [],
      "stateMutability": "nonpayable",
      "type": "function"
    },
    {
      "inputs": [
        {
          "internalType": "address",
          "name": "accountAddress",
          "type": "address"
        }
      ],
      "name": "getCharityOrganizationByAddress",
      "outputs": [
        {
          "components": [
            {
              "internalType": "address",
              "name": "accountAddress",
              "type": "address"
            },
            {
              "internalType": "string",
              "name": "email",
              "type": "string"
            },
            {
              "internalType": "string",
              "name": "name",
              "type": "string"
            },
            {
              "internalType": "string",
              "name": "description",
              "type": "string"
            },
            {
              "internalType": "string",
              "name": "phoneNumber",
              "type": "string"
            }
          ],
          "internalType": "struct CharityOrganizations.CharityOrganization",
          "name": "",
          "type": "tuple"
        }
      ],
      "stateMutability": "view",
      "type": "function",
      "constant": true
    },
    {
      "inputs": [],
      "name": "getAllCharityOrganizations",
      "outputs": [
        {
          "components": [
            {
              "internalType": "address",
              "name": "accountAddress",
              "type": "address"
            },
            {
              "internalType": "string",
              "name": "email",
              "type": "string"
            },
            {
              "internalType": "string",
              "name": "name",
              "type": "string"
            },
            {
              "internalType": "string",
              "name": "description",
              "type": "string"
            },
            {
              "internalType": "string",
              "name": "phoneNumber",
              "type": "string"
            }
          ],
          "internalType": "struct CharityOrganizations.CharityOrganization[]",
          "name": "",
          "type": "tuple[]"
        }
      ],
      "stateMutability": "view",
      "type": "function",
      "constant": true
    }
  ],
  "bytecode": "0x608060405234801561001057600080fd5b50611497806100206000396000f3fe608060405234801561001057600080fd5b506004361061004c5760003560e01c806349a4811d14610051578063612a18a81461006f5780637c20b6071461009f5780639d39dde4146100bb575b600080fd5b6100596100d7565b6040516100669190610ff3565b60405180910390f35b61008960048036038101906100849190611055565b6103d4565b604051610096919061110d565b60405180910390f35b6100b960048036038101906100b49190611264565b6106ca565b005b6100d560048036038101906100d09190611264565b6109c5565b005b60606001805480602002602001604051908101604052809291908181526020016000905b828210156103cb57838290600052602060002090600502016040518060a00160405290816000820160009054906101000a900473ffffffffffffffffffffffffffffffffffffffff1673ffffffffffffffffffffffffffffffffffffffff1673ffffffffffffffffffffffffffffffffffffffff1681526020016001820180546101849061137e565b80601f01602080910402602001604051908101604052809291908181526020018280546101b09061137e565b80156101fd5780601f106101d2576101008083540402835291602001916101fd565b820191906000526020600020905b8154815290600101906020018083116101e057829003601f168201915b505050505081526020016002820180546102169061137e565b80601f01602080910402602001604051908101604052809291908181526020018280546102429061137e565b801561028f5780601f106102645761010080835404028352916020019161028f565b820191906000526020600020905b81548152906001019060200180831161027257829003601f168201915b505050505081526020016003820180546102a89061137e565b80601f01602080910402602001604051908101604052809291908181526020018280546102d49061137e565b80156103215780601f106102f657610100808354040283529160200191610321565b820191906000526020600020905b81548152906001019060200180831161030457829003601f168201915b5050505050815260200160048201805461033a9061137e565b80601f01602080910402602001604051908101604052809291908181526020018280546103669061137e565b80156103b35780601f10610388576101008083540402835291602001916103b3565b820191906000526020600020905b81548152906001019060200180831161039657829003601f168201915b505050505081525050815260200190600101906100fb565b50505050905090565b6103dc610c57565b6000808373ffffffffffffffffffffffffffffffffffffffff1673ffffffffffffffffffffffffffffffffffffffff1681526020019081526020016000206040518060a00160405290816000820160009054906101000a900473ffffffffffffffffffffffffffffffffffffffff1673ffffffffffffffffffffffffffffffffffffffff1673ffffffffffffffffffffffffffffffffffffffff16815260200160018201805461048b9061137e565b80601f01602080910402602001604051908101604052809291908181526020018280546104b79061137e565b80156105045780601f106104d957610100808354040283529160200191610504565b820191906000526020600020905b8154815290600101906020018083116104e757829003601f168201915b5050505050815260200160028201805461051d9061137e565b80601f01602080910402602001604051908101604052809291908181526020018280546105499061137e565b80156105965780601f1061056b57610100808354040283529160200191610596565b820191906000526020600020905b81548152906001019060200180831161057957829003601f168201915b505050505081526020016003820180546105af9061137e565b80601f01602080910402602001604051908101604052809291908181526020018280546105db9061137e565b80156106285780601f106105fd57610100808354040283529160200191610628565b820191906000526020600020905b81548152906001019060200180831161060b57829003601f168201915b505050505081526020016004820180546106419061137e565b80601f016020809104026020016040519081016040528092919081815260200182805461066d9061137e565b80156106ba5780601f1061068f576101008083540402835291602001916106ba565b820191906000526020600020905b81548152906001019060200180831161069d57829003601f168201915b5050505050815250509050919050565b6040518060a001604052808673ffffffffffffffffffffffffffffffffffffffff168152602001858152602001848152602001838152602001828152506000808773ffffffffffffffffffffffffffffffffffffffff1673ffffffffffffffffffffffffffffffffffffffff16815260200190815260200160002060008201518160000160006101000a81548173ffffffffffffffffffffffffffffffffffffffff021916908373ffffffffffffffffffffffffffffffffffffffff16021790555060208201518160010190805190602001906107a8929190610c9c565b5060408201518160020190805190602001906107c5929190610c9c565b5060608201518160030190805190602001906107e2929190610c9c565b5060808201518160040190805190602001906107ff929190610c9c565b5090505060005b6001805490508110156109bd578573ffffffffffffffffffffffffffffffffffffffff166001828154811061083e5761083d6113b0565b5b906000526020600020906005020160000160009054906101000a900473ffffffffffffffffffffffffffffffffffffffff1673ffffffffffffffffffffffffffffffffffffffff1614156109aa576040518060a001604052808773ffffffffffffffffffffffffffffffffffffffff16815260200186815260200185815260200184815260200183815250600182815481106108dd576108dc6113b0565b5b906000526020600020906005020160008201518160000160006101000a81548173ffffffffffffffffffffffffffffffffffffffff021916908373ffffffffffffffffffffffffffffffffffffffff160217905550602082015181600101908051906020019061094e929190610c9c565b50604082015181600201908051906020019061096b929190610c9c565b506060820151816003019080519060200190610988929190610c9c565b5060808201518160040190805190602001906109a5929190610c9c565b509050505b80806109b590611418565b915050610806565b505050505050565b6040518060a001604052808673ffffffffffffffffffffffffffffffffffffffff168152602001858152602001848152602001838152602001828152506000808773ffffffffffffffffffffffffffffffffffffffff1673ffffffffffffffffffffffffffffffffffffffff16815260200190815260200160002060008201518160000160006101000a81548173ffffffffffffffffffffffffffffffffffffffff021916908373ffffffffffffffffffffffffffffffffffffffff1602179055506020820151816001019080519060200190610aa3929190610c9c565b506040820151816002019080519060200190610ac0929190610c9c565b506060820151816003019080519060200190610add929190610c9c565b506080820151816004019080519060200190610afa929190610c9c565b5090505060016000808773ffffffffffffffffffffffffffffffffffffffff1673ffffffffffffffffffffffffffffffffffffffff16815260200190815260200160002090806001815401808255809150506001900390600052602060002090600502016000909190919091506000820160009054906101000a900473ffffffffffffffffffffffffffffffffffffffff168160000160006101000a81548173ffffffffffffffffffffffffffffffffffffffff021916908373ffffffffffffffffffffffffffffffffffffffff1602179055506001820181600101908054610be29061137e565b610bed929190610d22565b506002820181600201908054610c029061137e565b610c0d929190610d22565b506003820181600301908054610c229061137e565b610c2d929190610d22565b506004820181600401908054610c429061137e565b610c4d929190610d22565b5050505050505050565b6040518060a00160405280600073ffffffffffffffffffffffffffffffffffffffff168152602001606081526020016060815260200160608152602001606081525090565b828054610ca89061137e565b90600052602060002090601f016020900481019282610cca5760008555610d11565b82601f10610ce357805160ff1916838001178555610d11565b82800160010185558215610d11579182015b82811115610d10578251825591602001919060010190610cf5565b5b509050610d1e9190610daf565b5090565b828054610d2e9061137e565b90600052602060002090601f016020900481019282610d505760008555610d9e565b82601f10610d615780548555610d9e565b82800160010185558215610d9e57600052602060002091601f016020900482015b82811115610d9d578254825591600101919060010190610d82565b5b509050610dab9190610daf565b5090565b5b80821115610dc8576000816000905550600101610db0565b5090565b600081519050919050565b600082825260208201905092915050565b6000819050602082019050919050565b600073ffffffffffffffffffffffffffffffffffffffff82169050919050565b6000610e2382610df8565b9050919050565b610e3381610e18565b82525050565b600081519050919050565b600082825260208201905092915050565b60005b83811015610e73578082015181840152602081019050610e58565b83811115610e82576000848401525b50505050565b6000601f19601f8301169050919050565b6000610ea482610e39565b610eae8185610e44565b9350610ebe818560208601610e55565b610ec781610e88565b840191505092915050565b600060a083016000830151610eea6000860182610e2a565b5060208301518482036020860152610f028282610e99565b91505060408301518482036040860152610f1c8282610e99565b91505060608301518482036060860152610f368282610e99565b91505060808301518482036080860152610f508282610e99565b9150508091505092915050565b6000610f698383610ed2565b905092915050565b6000602082019050919050565b6000610f8982610dcc565b610f938185610dd7565b935083602082028501610fa585610de8565b8060005b85811015610fe15784840389528151610fc28582610f5d565b9450610fcd83610f71565b925060208a01995050600181019050610fa9565b50829750879550505050505092915050565b6000602082019050818103600083015261100d8184610f7e565b905092915050565b6000604051905090565b600080fd5b600080fd5b61103281610e18565b811461103d57600080fd5b50565b60008135905061104f81611029565b92915050565b60006020828403121561106b5761106a61101f565b5b600061107984828501611040565b91505092915050565b600060a08301600083015161109a6000860182610e2a565b50602083015184820360208601526110b28282610e99565b915050604083015184820360408601526110cc8282610e99565b915050606083015184820360608601526110e68282610e99565b915050608083015184820360808601526111008282610e99565b9150508091505092915050565b600060208201905081810360008301526111278184611082565b905092915050565b600080fd5b600080fd5b7f4e487b7100000000000000000000000000000000000000000000000000000000600052604160045260246000fd5b61117182610e88565b810181811067ffffffffffffffff821117156111905761118f611139565b5b80604052505050565b60006111a3611015565b90506111af8282611168565b919050565b600067ffffffffffffffff8211156111cf576111ce611139565b5b6111d882610e88565b9050602081019050919050565b82818337600083830152505050565b6000611207611202846111b4565b611199565b90508281526020810184848401111561122357611222611134565b5b61122e8482856111e5565b509392505050565b600082601f83011261124b5761124a61112f565b5b813561125b8482602086016111f4565b91505092915050565b600080600080600060a086880312156112805761127f61101f565b5b600061128e88828901611040565b955050602086013567ffffffffffffffff8111156112af576112ae611024565b5b6112bb88828901611236565b945050604086013567ffffffffffffffff8111156112dc576112db611024565b5b6112e888828901611236565b935050606086013567ffffffffffffffff81111561130957611308611024565b5b61131588828901611236565b925050608086013567ffffffffffffffff81111561133657611335611024565b5b61134288828901611236565b9150509295509295909350565b7f4e487b7100000000000000000000000000000000000000000000000000000000600052602260045260246000fd5b6000600282049050600182168061139657607f821691505b602082108114156113aa576113a961134f565b5b50919050565b7f4e487b7100000000000000000000000000000000000000000000000000000000600052603260045260246000fd5b7f4e487b7100000000000000000000000000000000000000000000000000000000600052601160045260246000fd5b6000819050919050565b60006114238261140e565b91507fffffffffffffffffffffffffffffffffffffffffffffffffffffffffffffffff821415611456576114556113df565b5b60018201905091905056fea264697066735822122044179d48a606ab99b78eb6dde887f4e412e8faf1cd3b1fc61f95d127de109d0664736f6c634300080a0033",
  "immutableReferences": {},
  "source": "//SPDX-License-Identifier: MIT\r\n\r\npragma solidity >=0.4.22 <0.9.0;\r\n\r\ncontract CharityOrganizations {\r\n\r\n    struct CharityOrganization {\r\n\t    address accountAddress;\r\n        string email;\r\n        string name;\r\n        string description;\r\n        string phoneNumber;\r\n    }\r\n    \r\n    mapping(address => CharityOrganization) private charityOrganization;\r\n    CharityOrganization[] private charityOrganizations;\r\n\r\n    function addCharityOrganization(address accountAddress, string memory email, string memory name, string memory description, string memory phoneNumber) public {\r\n        charityOrganization[accountAddress] = CharityOrganization(accountAddress, email, name, description, phoneNumber);\r\n        charityOrganizations.push(charityOrganization[accountAddress]);\r\n    }\r\n\r\n    function updateCharityOrganization(address accountAddress, string memory email, string memory name, string memory description, string memory phoneNumber) public {\r\n        charityOrganization[accountAddress] = CharityOrganization(accountAddress, email, name, description, phoneNumber);\r\n        for(uint i=0; i < charityOrganizations.length; i++)\r\n            if(charityOrganizations[i].accountAddress == accountAddress)\r\n                charityOrganizations[i] =  CharityOrganization(accountAddress, email, name, description, phoneNumber);\r\n    }\r\n\r\n    function getCharityOrganizationByAddress(address accountAddress) view \r\n                                                                     public \r\n                                                                     returns (CharityOrganization memory) {\r\n        return charityOrganization[accountAddress];\r\n    }\r\n\r\n    function getAllCharityOrganizations() view \r\n                                          public \r\n                                          returns (CharityOrganization[] memory) {\r\n        return charityOrganizations;\r\n    }\r\n}",
  "sourcePath": "C:\\D\\projects\\licenta\\blockchainApp\\truffle\\contracts\\CharityOrganization.sol",
  "compiler": {
    "name": "solc",
    "version": "0.8.10+commit.fc410830.Emscripten.clang"
  },
  "schemaVersion": "3.4.7",
  "updatedAt": "2022-05-19T13:15:14.368Z",
  "networkType": "ethereum",
  "devdoc": {
    "kind": "dev",
    "methods": {},
    "version": 1
  },
  "userdoc": {
    "kind": "user",
    "methods": {},
    "version": 1
  }
}