{
  "contractName": "CharityOrganizations",
  "abi": [
    {
      "inputs": [
        {
          "internalType": "address",
          "name": "accountAddress",
          "type": "address"
        },
        {
          "internalType": "string",
          "name": "email",
          "type": "string"
        },
        {
          "internalType": "string",
          "name": "name",
          "type": "string"
        },
        {
          "internalType": "string",
          "name": "description",
          "type": "string"
        },
        {
          "internalType": "string",
          "name": "phoneNumber",
          "type": "string"
        }
      ],
      "name": "addCharityOrganization",
      "outputs": [],
      "stateMutability": "nonpayable",
      "type": "function"
    },
    {
      "inputs": [
        {
          "internalType": "address",
          "name": "accountAddress",
          "type": "address"
        }
      ],
      "name": "getCharityOrganizationByAddress",
      "outputs": [
        {
          "components": [
            {
              "internalType": "string",
              "name": "email",
              "type": "string"
            },
            {
              "internalType": "string",
              "name": "name",
              "type": "string"
            },
            {
              "internalType": "string",
              "name": "description",
              "type": "string"
            },
            {
              "internalType": "string",
              "name": "phoneNumber",
              "type": "string"
            }
          ],
          "internalType": "struct CharityOrganizations.CharityOrganization",
          "name": "",
          "type": "tuple"
        }
      ],
      "stateMutability": "view",
      "type": "function",
      "constant": true
    },
    {
      "inputs": [],
      "name": "getAllCharityOrganizations",
      "outputs": [
        {
          "components": [
            {
              "internalType": "string",
              "name": "email",
              "type": "string"
            },
            {
              "internalType": "string",
              "name": "name",
              "type": "string"
            },
            {
              "internalType": "string",
              "name": "description",
              "type": "string"
            },
            {
              "internalType": "string",
              "name": "phoneNumber",
              "type": "string"
            }
          ],
          "internalType": "struct CharityOrganizations.CharityOrganization[]",
          "name": "",
          "type": "tuple[]"
        }
      ],
      "stateMutability": "view",
      "type": "function",
      "constant": true
    }
  ],
  "bytecode": "0x608060405234801561001057600080fd5b50610efc806100206000396000f3fe608060405234801561001057600080fd5b50600436106100415760003560e01c806349a4811d14610046578063612a18a8146100645780639d39dde414610094575b600080fd5b61004e6100b0565b60405161005b9190610aea565b60405180910390f35b61007e60048036038101906100799190610b7e565b610357565b60405161008b9190610c23565b60405180910390f35b6100ae60048036038101906100a99190610d7a565b6105f7565b005b60606001805480602002602001604051908101604052809291908181526020016000905b8282101561034e578382906000526020600020906004020160405180608001604052908160008201805461010790610e94565b80601f016020809104026020016040519081016040528092919081815260200182805461013390610e94565b80156101805780601f1061015557610100808354040283529160200191610180565b820191906000526020600020905b81548152906001019060200180831161016357829003601f168201915b5050505050815260200160018201805461019990610e94565b80601f01602080910402602001604051908101604052809291908181526020018280546101c590610e94565b80156102125780601f106101e757610100808354040283529160200191610212565b820191906000526020600020905b8154815290600101906020018083116101f557829003601f168201915b5050505050815260200160028201805461022b90610e94565b80601f016020809104026020016040519081016040528092919081815260200182805461025790610e94565b80156102a45780601f10610279576101008083540402835291602001916102a4565b820191906000526020600020905b81548152906001019060200180831161028757829003601f168201915b505050505081526020016003820180546102bd90610e94565b80601f01602080910402602001604051908101604052809291908181526020018280546102e990610e94565b80156103365780601f1061030b57610100808354040283529160200191610336565b820191906000526020600020905b81548152906001019060200180831161031957829003601f168201915b505050505081525050815260200190600101906100d4565b50505050905090565b61035f6107bf565b6000808373ffffffffffffffffffffffffffffffffffffffff1673ffffffffffffffffffffffffffffffffffffffff1681526020019081526020016000206040518060800160405290816000820180546103b890610e94565b80601f01602080910402602001604051908101604052809291908181526020018280546103e490610e94565b80156104315780601f1061040657610100808354040283529160200191610431565b820191906000526020600020905b81548152906001019060200180831161041457829003601f168201915b5050505050815260200160018201805461044a90610e94565b80601f016020809104026020016040519081016040528092919081815260200182805461047690610e94565b80156104c35780601f10610498576101008083540402835291602001916104c3565b820191906000526020600020905b8154815290600101906020018083116104a657829003601f168201915b505050505081526020016002820180546104dc90610e94565b80601f016020809104026020016040519081016040528092919081815260200182805461050890610e94565b80156105555780601f1061052a57610100808354040283529160200191610555565b820191906000526020600020905b81548152906001019060200180831161053857829003601f168201915b5050505050815260200160038201805461056e90610e94565b80601f016020809104026020016040519081016040528092919081815260200182805461059a90610e94565b80156105e75780601f106105bc576101008083540402835291602001916105e7565b820191906000526020600020905b8154815290600101906020018083116105ca57829003601f168201915b5050505050815250509050919050565b6040518060800160405280858152602001848152602001838152602001828152506000808773ffffffffffffffffffffffffffffffffffffffff1673ffffffffffffffffffffffffffffffffffffffff16815260200190815260200160002060008201518160000190805190602001906106729291906107e7565b50602082015181600101908051906020019061068f9291906107e7565b5060408201518160020190805190602001906106ac9291906107e7565b5060608201518160030190805190602001906106c99291906107e7565b5090505060016000808773ffffffffffffffffffffffffffffffffffffffff1673ffffffffffffffffffffffffffffffffffffffff1681526020019081526020016000209080600181540180825580915050600190039060005260206000209060040201600090919091909150600082018160000190805461074a90610e94565b61075592919061086d565b50600182018160010190805461076a90610e94565b61077592919061086d565b50600282018160020190805461078a90610e94565b61079592919061086d565b5060038201816003019080546107aa90610e94565b6107b592919061086d565b5050505050505050565b6040518060800160405280606081526020016060815260200160608152602001606081525090565b8280546107f390610e94565b90600052602060002090601f016020900481019282610815576000855561085c565b82601f1061082e57805160ff191683800117855561085c565b8280016001018555821561085c579182015b8281111561085b578251825591602001919060010190610840565b5b50905061086991906108fa565b5090565b82805461087990610e94565b90600052602060002090601f01602090048101928261089b57600085556108e9565b82601f106108ac57805485556108e9565b828001600101855582156108e957600052602060002091601f016020900482015b828111156108e85782548255916001019190600101906108cd565b5b5090506108f691906108fa565b5090565b5b808211156109135760008160009055506001016108fb565b5090565b600081519050919050565b600082825260208201905092915050565b6000819050602082019050919050565b600081519050919050565b600082825260208201905092915050565b60005b8381101561097d578082015181840152602081019050610962565b8381111561098c576000848401525b50505050565b6000601f19601f8301169050919050565b60006109ae82610943565b6109b8818561094e565b93506109c881856020860161095f565b6109d181610992565b840191505092915050565b600060808301600083015184820360008601526109f982826109a3565b91505060208301518482036020860152610a1382826109a3565b91505060408301518482036040860152610a2d82826109a3565b91505060608301518482036060860152610a4782826109a3565b9150508091505092915050565b6000610a6083836109dc565b905092915050565b6000602082019050919050565b6000610a8082610917565b610a8a8185610922565b935083602082028501610a9c85610933565b8060005b85811015610ad85784840389528151610ab98582610a54565b9450610ac483610a68565b925060208a01995050600181019050610aa0565b50829750879550505050505092915050565b60006020820190508181036000830152610b048184610a75565b905092915050565b6000604051905090565b600080fd5b600080fd5b600073ffffffffffffffffffffffffffffffffffffffff82169050919050565b6000610b4b82610b20565b9050919050565b610b5b81610b40565b8114610b6657600080fd5b50565b600081359050610b7881610b52565b92915050565b600060208284031215610b9457610b93610b16565b5b6000610ba284828501610b69565b91505092915050565b60006080830160008301518482036000860152610bc882826109a3565b91505060208301518482036020860152610be282826109a3565b91505060408301518482036040860152610bfc82826109a3565b91505060608301518482036060860152610c1682826109a3565b9150508091505092915050565b60006020820190508181036000830152610c3d8184610bab565b905092915050565b600080fd5b600080fd5b7f4e487b7100000000000000000000000000000000000000000000000000000000600052604160045260246000fd5b610c8782610992565b810181811067ffffffffffffffff82111715610ca657610ca5610c4f565b5b80604052505050565b6000610cb9610b0c565b9050610cc58282610c7e565b919050565b600067ffffffffffffffff821115610ce557610ce4610c4f565b5b610cee82610992565b9050602081019050919050565b82818337600083830152505050565b6000610d1d610d1884610cca565b610caf565b905082815260208101848484011115610d3957610d38610c4a565b5b610d44848285610cfb565b509392505050565b600082601f830112610d6157610d60610c45565b5b8135610d71848260208601610d0a565b91505092915050565b600080600080600060a08688031215610d9657610d95610b16565b5b6000610da488828901610b69565b955050602086013567ffffffffffffffff811115610dc557610dc4610b1b565b5b610dd188828901610d4c565b945050604086013567ffffffffffffffff811115610df257610df1610b1b565b5b610dfe88828901610d4c565b935050606086013567ffffffffffffffff811115610e1f57610e1e610b1b565b5b610e2b88828901610d4c565b925050608086013567ffffffffffffffff811115610e4c57610e4b610b1b565b5b610e5888828901610d4c565b9150509295509295909350565b7f4e487b7100000000000000000000000000000000000000000000000000000000600052602260045260246000fd5b60006002820490506001821680610eac57607f821691505b60208210811415610ec057610ebf610e65565b5b5091905056fea2646970667358221220f41e23e018c835f6ef90d20b8f52935e02447bee5f571dcb5564d5f82895bc9464736f6c634300080a0033",
  "immutableReferences": {},
  "source": "//SPDX-License-Identifier: MIT\r\n\r\npragma solidity >=0.4.22 <0.9.0;\r\n\r\ncontract CharityOrganizations {\r\n\r\n    struct CharityOrganization {\r\n        string email;\r\n        string name;\r\n        string description;\r\n        string phoneNumber;\r\n    }\r\n    \r\n    mapping(address => CharityOrganization) private charityOrganization;\r\n    CharityOrganization[] private charityOrganizations;\r\n\r\n    function addCharityOrganization(address accountAddress, string memory email, string memory name, string memory description, string memory phoneNumber) public {\r\n        charityOrganization[accountAddress] = CharityOrganization(email, name, description, phoneNumber);\r\n        charityOrganizations.push(charityOrganization[accountAddress]);\r\n    }\r\n\r\n    function getCharityOrganizationByAddress(address accountAddress) view public returns (CharityOrganization memory) {\r\n        return charityOrganization[accountAddress];\r\n    }\r\n\r\n    function getAllCharityOrganizations() view public returns (CharityOrganization[] memory) {\r\n        return charityOrganizations;\r\n    }\r\n}",
  "sourcePath": "C:\\D\\projects\\licenta\\blockchainApp\\truffle\\contracts\\CharityOrganization.sol",
  "compiler": {
    "name": "solc",
    "version": "0.8.10+commit.fc410830.Emscripten.clang"
  },
  "schemaVersion": "3.4.7",
  "updatedAt": "2022-04-26T10:52:47.951Z",
  "networkType": "ethereum",
  "devdoc": {
    "kind": "dev",
    "methods": {},
    "version": 1
  },
  "userdoc": {
    "kind": "user",
    "methods": {},
    "version": 1
  }
}