{
  "contractName": "Donor",
  "abi": [
    {
      "inputs": [
        {
          "internalType": "address",
          "name": "accountAddress",
          "type": "address"
        }
      ],
      "name": "getDonorUsername",
      "outputs": [
        {
          "internalType": "string",
          "name": "",
          "type": "string"
        }
      ],
      "stateMutability": "view",
      "type": "function",
      "constant": true
    },
    {
      "inputs": [
        {
          "internalType": "address",
          "name": "accountAddress",
          "type": "address"
        },
        {
          "internalType": "string",
          "name": "username",
          "type": "string"
        }
      ],
      "name": "setDonorUsername",
      "outputs": [],
      "stateMutability": "nonpayable",
      "type": "function"
    }
  ],
  "bytecode": "0x608060405234801561001057600080fd5b506104f9806100206000396000f3fe608060405234801561001057600080fd5b50600436106100365760003560e01c8063904fc7ca1461003b578063a43bf5501461006b575b600080fd5b610055600480360381019061005091906102b5565b610087565b604051610062919061037b565b60405180910390f35b61008560048036038101906100809190610402565b610157565b005b60606000808373ffffffffffffffffffffffffffffffffffffffff1673ffffffffffffffffffffffffffffffffffffffff16815260200190815260200160002080546100d290610491565b80601f01602080910402602001604051908101604052809291908181526020018280546100fe90610491565b801561014b5780601f106101205761010080835404028352916020019161014b565b820191906000526020600020905b81548152906001019060200180831161012e57829003601f168201915b50505050509050919050565b81816000808673ffffffffffffffffffffffffffffffffffffffff1673ffffffffffffffffffffffffffffffffffffffff16815260200190815260200160002091906101a49291906101aa565b50505050565b8280546101b690610491565b90600052602060002090601f0160209004810192826101d8576000855561021f565b82601f106101f157803560ff191683800117855561021f565b8280016001018555821561021f579182015b8281111561021e578235825591602001919060010190610203565b5b50905061022c9190610230565b5090565b5b80821115610249576000816000905550600101610231565b5090565b600080fd5b600080fd5b600073ffffffffffffffffffffffffffffffffffffffff82169050919050565b600061028282610257565b9050919050565b61029281610277565b811461029d57600080fd5b50565b6000813590506102af81610289565b92915050565b6000602082840312156102cb576102ca61024d565b5b60006102d9848285016102a0565b91505092915050565b600081519050919050565b600082825260208201905092915050565b60005b8381101561031c578082015181840152602081019050610301565b8381111561032b576000848401525b50505050565b6000601f19601f8301169050919050565b600061034d826102e2565b61035781856102ed565b93506103678185602086016102fe565b61037081610331565b840191505092915050565b600060208201905081810360008301526103958184610342565b905092915050565b600080fd5b600080fd5b600080fd5b60008083601f8401126103c2576103c161039d565b5b8235905067ffffffffffffffff8111156103df576103de6103a2565b5b6020830191508360018202830111156103fb576103fa6103a7565b5b9250929050565b60008060006040848603121561041b5761041a61024d565b5b6000610429868287016102a0565b935050602084013567ffffffffffffffff81111561044a57610449610252565b5b610456868287016103ac565b92509250509250925092565b7f4e487b7100000000000000000000000000000000000000000000000000000000600052602260045260246000fd5b600060028204905060018216806104a957607f821691505b602082108114156104bd576104bc610462565b5b5091905056fea26469706673582212206896b5a5523367ce622b25ccc407a1da6c3c53f0fda3d405acc71a23df67bf0064736f6c634300080a0033",
  "immutableReferences": {},
  "source": "//SPDX-License-Identifier: MIT\r\n\r\npragma solidity >=0.4.22 <0.9.0;\r\n\r\ncontract Donor {\r\n    \r\n    mapping(address => string) private donor;\r\n\r\n    function getDonorUsername(address accountAddress) public view returns (string memory) {\r\n        return donor[accountAddress];\r\n    }\r\n\r\n    function setDonorUsername(address accountAddress, string calldata username) public {\r\n        donor[accountAddress] = username;\r\n    }\r\n}",
  "sourcePath": "C:\\D\\projects\\licenta\\blockchainApp\\truffle\\contracts\\Donor.sol",
  "compiler": {
    "name": "solc",
    "version": "0.8.10+commit.fc410830.Emscripten.clang"
  },
  "schemaVersion": "3.4.7",
  "updatedAt": "2022-04-26T10:52:47.945Z",
  "networkType": "ethereum",
  "devdoc": {
    "kind": "dev",
    "methods": {},
    "version": 1
  },
  "userdoc": {
    "kind": "user",
    "methods": {},
    "version": 1
  }
}