{
  "contractName": "Posts",
  "abi": [
    {
      "inputs": [
        {
          "internalType": "address",
          "name": "charityOrganizationAddress",
          "type": "address"
        },
        {
          "internalType": "string",
          "name": "headline",
          "type": "string"
        },
        {
          "internalType": "string",
          "name": "description",
          "type": "string"
        },
        {
          "internalType": "string",
          "name": "readMoreUrl",
          "type": "string"
        },
        {
          "internalType": "string[]",
          "name": "photos",
          "type": "string[]"
        }
      ],
      "name": "addPost",
      "outputs": [],
      "stateMutability": "nonpayable",
      "type": "function"
    },
    {
      "inputs": [
        {
          "internalType": "uint256",
          "name": "id",
          "type": "uint256"
        },
        {
          "internalType": "address",
          "name": "charityOrganizationAddress",
          "type": "address"
        },
        {
          "internalType": "string",
          "name": "headline",
          "type": "string"
        },
        {
          "internalType": "string",
          "name": "description",
          "type": "string"
        },
        {
          "internalType": "string",
          "name": "readMoreUrl",
          "type": "string"
        },
        {
          "internalType": "string[]",
          "name": "photos",
          "type": "string[]"
        }
      ],
      "name": "updatePost",
      "outputs": [],
      "stateMutability": "nonpayable",
      "type": "function"
    },
    {
      "inputs": [
        {
          "internalType": "uint256",
          "name": "id",
          "type": "uint256"
        }
      ],
      "name": "deletePostById",
      "outputs": [],
      "stateMutability": "nonpayable",
      "type": "function"
    },
    {
      "inputs": [
        {
          "internalType": "uint256",
          "name": "id",
          "type": "uint256"
        }
      ],
      "name": "getPostById",
      "outputs": [
        {
          "components": [
            {
              "internalType": "uint256",
              "name": "id",
              "type": "uint256"
            },
            {
              "internalType": "address",
              "name": "charityOrganizationAddress",
              "type": "address"
            },
            {
              "internalType": "string",
              "name": "headline",
              "type": "string"
            },
            {
              "internalType": "string",
              "name": "description",
              "type": "string"
            },
            {
              "internalType": "string",
              "name": "readMoreUrl",
              "type": "string"
            },
            {
              "internalType": "string[]",
              "name": "photos",
              "type": "string[]"
            },
            {
              "internalType": "bool",
              "name": "deleted",
              "type": "bool"
            }
          ],
          "internalType": "struct Posts.Post",
          "name": "",
          "type": "tuple"
        }
      ],
      "stateMutability": "view",
      "type": "function",
      "constant": true
    },
    {
      "inputs": [],
      "name": "getAllPosts",
      "outputs": [
        {
          "components": [
            {
              "internalType": "uint256",
              "name": "id",
              "type": "uint256"
            },
            {
              "internalType": "address",
              "name": "charityOrganizationAddress",
              "type": "address"
            },
            {
              "internalType": "string",
              "name": "headline",
              "type": "string"
            },
            {
              "internalType": "string",
              "name": "description",
              "type": "string"
            },
            {
              "internalType": "string",
              "name": "readMoreUrl",
              "type": "string"
            },
            {
              "internalType": "string[]",
              "name": "photos",
              "type": "string[]"
            },
            {
              "internalType": "bool",
              "name": "deleted",
              "type": "bool"
            }
          ],
          "internalType": "struct Posts.Post[]",
          "name": "",
          "type": "tuple[]"
        }
      ],
      "stateMutability": "view",
      "type": "function",
      "constant": true
    }
  ],
  "bytecode": "0x6080604052600060015534801561001557600080fd5b50611699806100256000396000f3fe608060405234801561001057600080fd5b50600436106100575760003560e01c8063305611001461005c57806364e958951461007a578063b758cfdc146100aa578063ed892369146100c6578063f72f9666146100e2575b600080fd5b6100646100fe565b6040516100719190610fca565b60405180910390f35b610094600480360381019061008f919061102c565b610467565b6040516100a1919061110a565b60405180910390f35b6100c460048036038101906100bf9190611373565b6107ad565b005b6100e060048036038101906100db919061102c565b61090b565b005b6100fc60048036038101906100f79190611470565b61094c565b005b60606000805480602002602001604051908101604052809291908181526020016000905b8282101561045e57838290600052602060002090600702016040518060e0016040529081600082015481526020016001820160009054906101000a900473ffffffffffffffffffffffffffffffffffffffff1673ffffffffffffffffffffffffffffffffffffffff1673ffffffffffffffffffffffffffffffffffffffff1681526020016002820180546101b59061158a565b80601f01602080910402602001604051908101604052809291908181526020018280546101e19061158a565b801561022e5780601f106102035761010080835404028352916020019161022e565b820191906000526020600020905b81548152906001019060200180831161021157829003601f168201915b505050505081526020016003820180546102479061158a565b80601f01602080910402602001604051908101604052809291908181526020018280546102739061158a565b80156102c05780601f10610295576101008083540402835291602001916102c0565b820191906000526020600020905b8154815290600101906020018083116102a357829003601f168201915b505050505081526020016004820180546102d99061158a565b80601f01602080910402602001604051908101604052809291908181526020018280546103059061158a565b80156103525780601f1061032757610100808354040283529160200191610352565b820191906000526020600020905b81548152906001019060200180831161033557829003601f168201915b5050505050815260200160058201805480602002602001604051908101604052809291908181526020016000905b8282101561042c57838290600052602060002001805461039f9061158a565b80601f01602080910402602001604051908101604052809291908181526020018280546103cb9061158a565b80156104185780601f106103ed57610100808354040283529160200191610418565b820191906000526020600020905b8154815290600101906020018083116103fb57829003601f168201915b505050505081526020019060010190610380565b5050505081526020016006820160009054906101000a900460ff16151515158152505081526020019060010190610122565b50505050905090565b61046f610acb565b60008281548110610483576104826115bc565b5b90600052602060002090600702016040518060e0016040529081600082015481526020016001820160009054906101000a900473ffffffffffffffffffffffffffffffffffffffff1673ffffffffffffffffffffffffffffffffffffffff1673ffffffffffffffffffffffffffffffffffffffff16815260200160028201805461050c9061158a565b80601f01602080910402602001604051908101604052809291908181526020018280546105389061158a565b80156105855780601f1061055a57610100808354040283529160200191610585565b820191906000526020600020905b81548152906001019060200180831161056857829003601f168201915b5050505050815260200160038201805461059e9061158a565b80601f01602080910402602001604051908101604052809291908181526020018280546105ca9061158a565b80156106175780601f106105ec57610100808354040283529160200191610617565b820191906000526020600020905b8154815290600101906020018083116105fa57829003601f168201915b505050505081526020016004820180546106309061158a565b80601f016020809104026020016040519081016040528092919081815260200182805461065c9061158a565b80156106a95780601f1061067e576101008083540402835291602001916106a9565b820191906000526020600020905b81548152906001019060200180831161068c57829003601f168201915b5050505050815260200160058201805480602002602001604051908101604052809291908181526020016000905b828210156107835783829060005260206000200180546106f69061158a565b80601f01602080910402602001604051908101604052809291908181526020018280546107229061158a565b801561076f5780601f106107445761010080835404028352916020019161076f565b820191906000526020600020905b81548152906001019060200180831161075257829003601f168201915b5050505050815260200190600101906106d7565b5050505081526020016006820160009054906101000a900460ff1615151515815250509050919050565b6040518060e001604052808781526020018673ffffffffffffffffffffffffffffffffffffffff168152602001858152602001848152602001838152602001828152602001600015158152506000878154811061080d5761080c6115bc565b5b90600052602060002090600702016000820151816000015560208201518160010160006101000a81548173ffffffffffffffffffffffffffffffffffffffff021916908373ffffffffffffffffffffffffffffffffffffffff1602179055506040820151816002019080519060200190610888929190610b20565b5060608201518160030190805190602001906108a5929190610b20565b5060808201518160040190805190602001906108c2929190610b20565b5060a08201518160050190805190602001906108df929190610ba6565b5060c08201518160060160006101000a81548160ff021916908315150217905550905050505050505050565b600160008281548110610921576109206115bc565b5b906000526020600020906007020160060160006101000a81548160ff02191690831515021790555050565b60006040518060e0016040528060015481526020018773ffffffffffffffffffffffffffffffffffffffff1681526020018681526020018581526020018481526020018381526020016000151581525090806001815401808255809150506001900390600052602060002090600702016000909190919091506000820151816000015560208201518160010160006101000a81548173ffffffffffffffffffffffffffffffffffffffff021916908373ffffffffffffffffffffffffffffffffffffffff1602179055506040820151816002019080519060200190610a32929190610b20565b506060820151816003019080519060200190610a4f929190610b20565b506080820151816004019080519060200190610a6c929190610b20565b5060a0820151816005019080519060200190610a89929190610ba6565b5060c08201518160060160006101000a81548160ff021916908315150217905550505060016000815480929190610abf9061161a565b91905055505050505050565b6040518060e0016040528060008152602001600073ffffffffffffffffffffffffffffffffffffffff168152602001606081526020016060815260200160608152602001606081526020016000151581525090565b828054610b2c9061158a565b90600052602060002090601f016020900481019282610b4e5760008555610b95565b82601f10610b6757805160ff1916838001178555610b95565b82800160010185558215610b95579182015b82811115610b94578251825591602001919060010190610b79565b5b509050610ba29190610c06565b5090565b828054828255906000526020600020908101928215610bf5579160200282015b82811115610bf4578251829080519060200190610be4929190610b20565b5091602001919060010190610bc6565b5b509050610c029190610c23565b5090565b5b80821115610c1f576000816000905550600101610c07565b5090565b5b80821115610c435760008181610c3a9190610c47565b50600101610c24565b5090565b508054610c539061158a565b6000825580601f10610c655750610c84565b601f016020900490600052602060002090810190610c839190610c06565b5b50565b600081519050919050565b600082825260208201905092915050565b6000819050602082019050919050565b6000819050919050565b610cc681610cb3565b82525050565b600073ffffffffffffffffffffffffffffffffffffffff82169050919050565b6000610cf782610ccc565b9050919050565b610d0781610cec565b82525050565b600081519050919050565b600082825260208201905092915050565b60005b83811015610d47578082015181840152602081019050610d2c565b83811115610d56576000848401525b50505050565b6000601f19601f8301169050919050565b6000610d7882610d0d565b610d828185610d18565b9350610d92818560208601610d29565b610d9b81610d5c565b840191505092915050565b600081519050919050565b600082825260208201905092915050565b6000819050602082019050919050565b6000610dde8383610d6d565b905092915050565b6000602082019050919050565b6000610dfe82610da6565b610e088185610db1565b935083602082028501610e1a85610dc2565b8060005b85811015610e565784840389528151610e378582610dd2565b9450610e4283610de6565b925060208a01995050600181019050610e1e565b50829750879550505050505092915050565b60008115159050919050565b610e7d81610e68565b82525050565b600060e083016000830151610e9b6000860182610cbd565b506020830151610eae6020860182610cfe565b5060408301518482036040860152610ec68282610d6d565b91505060608301518482036060860152610ee08282610d6d565b91505060808301518482036080860152610efa8282610d6d565b91505060a083015184820360a0860152610f148282610df3565b91505060c0830151610f2960c0860182610e74565b508091505092915050565b6000610f408383610e83565b905092915050565b6000602082019050919050565b6000610f6082610c87565b610f6a8185610c92565b935083602082028501610f7c85610ca3565b8060005b85811015610fb85784840389528151610f998582610f34565b9450610fa483610f48565b925060208a01995050600181019050610f80565b50829750879550505050505092915050565b60006020820190508181036000830152610fe48184610f55565b905092915050565b6000604051905090565b600080fd5b600080fd5b61100981610cb3565b811461101457600080fd5b50565b60008135905061102681611000565b92915050565b60006020828403121561104257611041610ff6565b5b600061105084828501611017565b91505092915050565b600060e0830160008301516110716000860182610cbd565b5060208301516110846020860182610cfe565b506040830151848203604086015261109c8282610d6d565b915050606083015184820360608601526110b68282610d6d565b915050608083015184820360808601526110d08282610d6d565b91505060a083015184820360a08601526110ea8282610df3565b91505060c08301516110ff60c0860182610e74565b508091505092915050565b600060208201905081810360008301526111248184611059565b905092915050565b61113581610cec565b811461114057600080fd5b50565b6000813590506111528161112c565b92915050565b600080fd5b600080fd5b7f4e487b7100000000000000000000000000000000000000000000000000000000600052604160045260246000fd5b61119a82610d5c565b810181811067ffffffffffffffff821117156111b9576111b8611162565b5b80604052505050565b60006111cc610fec565b90506111d88282611191565b919050565b600067ffffffffffffffff8211156111f8576111f7611162565b5b61120182610d5c565b9050602081019050919050565b82818337600083830152505050565b600061123061122b846111dd565b6111c2565b90508281526020810184848401111561124c5761124b61115d565b5b61125784828561120e565b509392505050565b600082601f83011261127457611273611158565b5b813561128484826020860161121d565b91505092915050565b600067ffffffffffffffff8211156112a8576112a7611162565b5b602082029050602081019050919050565b600080fd5b60006112d16112cc8461128d565b6111c2565b905080838252602082019050602084028301858111156112f4576112f36112b9565b5b835b8181101561133b57803567ffffffffffffffff81111561131957611318611158565b5b808601611326898261125f565b855260208501945050506020810190506112f6565b5050509392505050565b600082601f83011261135a57611359611158565b5b813561136a8482602086016112be565b91505092915050565b60008060008060008060c087890312156113905761138f610ff6565b5b600061139e89828a01611017565b96505060206113af89828a01611143565b955050604087013567ffffffffffffffff8111156113d0576113cf610ffb565b5b6113dc89828a0161125f565b945050606087013567ffffffffffffffff8111156113fd576113fc610ffb565b5b61140989828a0161125f565b935050608087013567ffffffffffffffff81111561142a57611429610ffb565b5b61143689828a0161125f565b92505060a087013567ffffffffffffffff81111561145757611456610ffb565b5b61146389828a01611345565b9150509295509295509295565b600080600080600060a0868803121561148c5761148b610ff6565b5b600061149a88828901611143565b955050602086013567ffffffffffffffff8111156114bb576114ba610ffb565b5b6114c78882890161125f565b945050604086013567ffffffffffffffff8111156114e8576114e7610ffb565b5b6114f48882890161125f565b935050606086013567ffffffffffffffff81111561151557611514610ffb565b5b6115218882890161125f565b925050608086013567ffffffffffffffff81111561154257611541610ffb565b5b61154e88828901611345565b9150509295509295909350565b7f4e487b7100000000000000000000000000000000000000000000000000000000600052602260045260246000fd5b600060028204905060018216806115a257607f821691505b602082108114156115b6576115b561155b565b5b50919050565b7f4e487b7100000000000000000000000000000000000000000000000000000000600052603260045260246000fd5b7f4e487b7100000000000000000000000000000000000000000000000000000000600052601160045260246000fd5b600061162582610cb3565b91507fffffffffffffffffffffffffffffffffffffffffffffffffffffffffffffffff821415611658576116576115eb565b5b60018201905091905056fea2646970667358221220b41b804a12a73a5ff91ba8ec7854c083869a35d2386b8b626fda4be8fccb080564736f6c634300080a0033",
  "immutableReferences": {},
  "source": "//SPDX-License-Identifier: MIT\r\n\r\npragma solidity >=0.4.22 <0.9.0;\r\n\r\ncontract Posts {\r\n\r\n    struct Post {\r\n        uint id;\r\n        address charityOrganizationAddress;\r\n        string headline;\r\n        string description;\r\n        string readMoreUrl;\r\n        string[] photos;\r\n        bool deleted;\r\n    }\r\n\r\n    Post[] private posts;\r\n    uint count = 0;\r\n\r\n    function addPost(address charityOrganizationAddress, \r\n                     string memory headline, \r\n                     string memory description, \r\n                     string memory readMoreUrl, \r\n                     string[] memory photos) public {\r\n        posts.push(Post(count, charityOrganizationAddress, headline, description, readMoreUrl, photos, false));\r\n        count++;\r\n    }\r\n\r\n    function updatePost(uint id,\r\n                        address charityOrganizationAddress, \r\n                        string memory headline, \r\n                        string memory description, \r\n                        string memory readMoreUrl, \r\n                        string[] memory photos) public {\r\n        posts[id] =  Post(id, charityOrganizationAddress, headline, description, readMoreUrl, photos, false);\r\n    }\r\n\r\n    function deletePostById(uint id) public {\r\n        posts[id].deleted = true;\r\n    }\r\n\r\n    function getPostById(uint id) view \r\n                                  public \r\n                                  returns (Post memory) {\r\n        return posts[id];\r\n    }\r\n\r\n    function getAllPosts() view \r\n                           public \r\n                           returns (Post[] memory) {\r\n        return posts;\r\n    }\r\n}",
  "sourcePath": "C:\\D\\projects\\licenta\\lets-be-human\\truffle\\contracts\\Posts.sol",
  "compiler": {
    "name": "solc",
    "version": "0.8.10+commit.fc410830.Emscripten.clang"
  },
  "schemaVersion": "3.4.7",
  "updatedAt": "2022-05-25T19:07:14.245Z",
  "networkType": "ethereum",
  "devdoc": {
    "kind": "dev",
    "methods": {},
    "version": 1
  },
  "userdoc": {
    "kind": "user",
    "methods": {},
    "version": 1
  }
}