{
  "contractName": "Posts",
  "abi": [
    {
      "inputs": [
        {
          "internalType": "address",
          "name": "charityOrganizationAddress",
          "type": "address"
        },
        {
          "internalType": "string",
          "name": "headline",
          "type": "string"
        },
        {
          "internalType": "string",
          "name": "description",
          "type": "string"
        },
        {
          "internalType": "string",
          "name": "readMoreUrl",
          "type": "string"
        }
      ],
      "name": "addPost",
      "outputs": [],
      "stateMutability": "nonpayable",
      "type": "function"
    },
    {
      "inputs": [
        {
          "internalType": "uint256",
          "name": "id",
          "type": "uint256"
        },
        {
          "internalType": "address",
          "name": "charityOrganizationAddress",
          "type": "address"
        },
        {
          "internalType": "string",
          "name": "headline",
          "type": "string"
        },
        {
          "internalType": "string",
          "name": "description",
          "type": "string"
        },
        {
          "internalType": "string",
          "name": "readMoreUrl",
          "type": "string"
        }
      ],
      "name": "updatePost",
      "outputs": [],
      "stateMutability": "nonpayable",
      "type": "function"
    },
    {
      "inputs": [
        {
          "internalType": "uint256",
          "name": "id",
          "type": "uint256"
        }
      ],
      "name": "deletePostById",
      "outputs": [],
      "stateMutability": "nonpayable",
      "type": "function"
    },
    {
      "inputs": [
        {
          "internalType": "uint256",
          "name": "id",
          "type": "uint256"
        }
      ],
      "name": "getPostById",
      "outputs": [
        {
          "components": [
            {
              "internalType": "uint256",
              "name": "id",
              "type": "uint256"
            },
            {
              "internalType": "address",
              "name": "charityOrganizationAddress",
              "type": "address"
            },
            {
              "internalType": "string",
              "name": "headline",
              "type": "string"
            },
            {
              "internalType": "string",
              "name": "description",
              "type": "string"
            },
            {
              "internalType": "string",
              "name": "readMoreUrl",
              "type": "string"
            },
            {
              "internalType": "bool",
              "name": "deleted",
              "type": "bool"
            }
          ],
          "internalType": "struct Posts.Post",
          "name": "",
          "type": "tuple"
        }
      ],
      "stateMutability": "view",
      "type": "function",
      "constant": true
    },
    {
      "inputs": [],
      "name": "getAllPosts",
      "outputs": [
        {
          "components": [
            {
              "internalType": "uint256",
              "name": "id",
              "type": "uint256"
            },
            {
              "internalType": "address",
              "name": "charityOrganizationAddress",
              "type": "address"
            },
            {
              "internalType": "string",
              "name": "headline",
              "type": "string"
            },
            {
              "internalType": "string",
              "name": "description",
              "type": "string"
            },
            {
              "internalType": "string",
              "name": "readMoreUrl",
              "type": "string"
            },
            {
              "internalType": "bool",
              "name": "deleted",
              "type": "bool"
            }
          ],
          "internalType": "struct Posts.Post[]",
          "name": "",
          "type": "tuple[]"
        }
      ],
      "stateMutability": "view",
      "type": "function",
      "constant": true
    }
  ],
  "bytecode": "0x6080604052600060015534801561001557600080fd5b5061119a806100256000396000f3fe608060405234801561001057600080fd5b50600436106100575760003560e01c8063305611001461005c578063401301901461007a57806364e9589514610096578063ed892369146100c6578063f5e5050d146100e2575b600080fd5b6100646100fe565b6040516100719190610c29565b60405180910390f35b610094600480360381019061008f9190610dec565b61038e565b005b6100b060048036038101906100ab9190610ebb565b6104c8565b6040516100bd9190610f7f565b60405180910390f35b6100e060048036038101906100db9190610ebb565b610735565b005b6100fc60048036038101906100f79190610fa1565b610776565b005b60606000805480602002602001604051908101604052809291908181526020016000905b8282101561038557838290600052602060002090600602016040518060c0016040529081600082015481526020016001820160009054906101000a900473ffffffffffffffffffffffffffffffffffffffff1673ffffffffffffffffffffffffffffffffffffffff1673ffffffffffffffffffffffffffffffffffffffff1681526020016002820180546101b59061108b565b80601f01602080910402602001604051908101604052809291908181526020018280546101e19061108b565b801561022e5780601f106102035761010080835404028352916020019161022e565b820191906000526020600020905b81548152906001019060200180831161021157829003601f168201915b505050505081526020016003820180546102479061108b565b80601f01602080910402602001604051908101604052809291908181526020018280546102739061108b565b80156102c05780601f10610295576101008083540402835291602001916102c0565b820191906000526020600020905b8154815290600101906020018083116102a357829003601f168201915b505050505081526020016004820180546102d99061108b565b80601f01602080910402602001604051908101604052809291908181526020018280546103059061108b565b80156103525780601f1061032757610100808354040283529160200191610352565b820191906000526020600020905b81548152906001019060200180831161033557829003601f168201915b505050505081526020016005820160009054906101000a900460ff16151515158152505081526020019060010190610122565b50505050905090565b6040518060c001604052808681526020018573ffffffffffffffffffffffffffffffffffffffff16815260200184815260200183815260200182815260200160001515815250600086815481106103e8576103e76110bd565b5b90600052602060002090600602016000820151816000015560208201518160010160006101000a81548173ffffffffffffffffffffffffffffffffffffffff021916908373ffffffffffffffffffffffffffffffffffffffff16021790555060408201518160020190805190602001906104639291906108d1565b5060608201518160030190805190602001906104809291906108d1565b50608082015181600401908051906020019061049d9291906108d1565b5060a08201518160050160006101000a81548160ff0219169083151502179055509050505050505050565b6104d0610957565b600082815481106104e4576104e36110bd565b5b90600052602060002090600602016040518060c0016040529081600082015481526020016001820160009054906101000a900473ffffffffffffffffffffffffffffffffffffffff1673ffffffffffffffffffffffffffffffffffffffff1673ffffffffffffffffffffffffffffffffffffffff16815260200160028201805461056d9061108b565b80601f01602080910402602001604051908101604052809291908181526020018280546105999061108b565b80156105e65780601f106105bb576101008083540402835291602001916105e6565b820191906000526020600020905b8154815290600101906020018083116105c957829003601f168201915b505050505081526020016003820180546105ff9061108b565b80601f016020809104026020016040519081016040528092919081815260200182805461062b9061108b565b80156106785780601f1061064d57610100808354040283529160200191610678565b820191906000526020600020905b81548152906001019060200180831161065b57829003601f168201915b505050505081526020016004820180546106919061108b565b80601f01602080910402602001604051908101604052809291908181526020018280546106bd9061108b565b801561070a5780601f106106df5761010080835404028352916020019161070a565b820191906000526020600020905b8154815290600101906020018083116106ed57829003601f168201915b505050505081526020016005820160009054906101000a900460ff1615151515815250509050919050565b60016000828154811061074b5761074a6110bd565b5b906000526020600020906006020160050160006101000a81548160ff02191690831515021790555050565b60006040518060c0016040528060015481526020018673ffffffffffffffffffffffffffffffffffffffff1681526020018581526020018481526020018381526020016000151581525090806001815401808255809150506001900390600052602060002090600602016000909190919091506000820151816000015560208201518160010160006101000a81548173ffffffffffffffffffffffffffffffffffffffff021916908373ffffffffffffffffffffffffffffffffffffffff16021790555060408201518160020190805190602001906108569291906108d1565b5060608201518160030190805190602001906108739291906108d1565b5060808201518160040190805190602001906108909291906108d1565b5060a08201518160050160006101000a81548160ff0219169083151502179055505050600160008154809291906108c69061111b565b919050555050505050565b8280546108dd9061108b565b90600052602060002090601f0160209004810192826108ff5760008555610946565b82601f1061091857805160ff1916838001178555610946565b82800160010185558215610946579182015b8281111561094557825182559160200191906001019061092a565b5b50905061095391906109a5565b5090565b6040518060c0016040528060008152602001600073ffffffffffffffffffffffffffffffffffffffff1681526020016060815260200160608152602001606081526020016000151581525090565b5b808211156109be5760008160009055506001016109a6565b5090565b600081519050919050565b600082825260208201905092915050565b6000819050602082019050919050565b6000819050919050565b610a01816109ee565b82525050565b600073ffffffffffffffffffffffffffffffffffffffff82169050919050565b6000610a3282610a07565b9050919050565b610a4281610a27565b82525050565b600081519050919050565b600082825260208201905092915050565b60005b83811015610a82578082015181840152602081019050610a67565b83811115610a91576000848401525b50505050565b6000601f19601f8301169050919050565b6000610ab382610a48565b610abd8185610a53565b9350610acd818560208601610a64565b610ad681610a97565b840191505092915050565b60008115159050919050565b610af681610ae1565b82525050565b600060c083016000830151610b1460008601826109f8565b506020830151610b276020860182610a39565b5060408301518482036040860152610b3f8282610aa8565b91505060608301518482036060860152610b598282610aa8565b91505060808301518482036080860152610b738282610aa8565b91505060a0830151610b8860a0860182610aed565b508091505092915050565b6000610b9f8383610afc565b905092915050565b6000602082019050919050565b6000610bbf826109c2565b610bc981856109cd565b935083602082028501610bdb856109de565b8060005b85811015610c175784840389528151610bf88582610b93565b9450610c0383610ba7565b925060208a01995050600181019050610bdf565b50829750879550505050505092915050565b60006020820190508181036000830152610c438184610bb4565b905092915050565b6000604051905090565b600080fd5b600080fd5b610c68816109ee565b8114610c7357600080fd5b50565b600081359050610c8581610c5f565b92915050565b610c9481610a27565b8114610c9f57600080fd5b50565b600081359050610cb181610c8b565b92915050565b600080fd5b600080fd5b7f4e487b7100000000000000000000000000000000000000000000000000000000600052604160045260246000fd5b610cf982610a97565b810181811067ffffffffffffffff82111715610d1857610d17610cc1565b5b80604052505050565b6000610d2b610c4b565b9050610d378282610cf0565b919050565b600067ffffffffffffffff821115610d5757610d56610cc1565b5b610d6082610a97565b9050602081019050919050565b82818337600083830152505050565b6000610d8f610d8a84610d3c565b610d21565b905082815260208101848484011115610dab57610daa610cbc565b5b610db6848285610d6d565b509392505050565b600082601f830112610dd357610dd2610cb7565b5b8135610de3848260208601610d7c565b91505092915050565b600080600080600060a08688031215610e0857610e07610c55565b5b6000610e1688828901610c76565b9550506020610e2788828901610ca2565b945050604086013567ffffffffffffffff811115610e4857610e47610c5a565b5b610e5488828901610dbe565b935050606086013567ffffffffffffffff811115610e7557610e74610c5a565b5b610e8188828901610dbe565b925050608086013567ffffffffffffffff811115610ea257610ea1610c5a565b5b610eae88828901610dbe565b9150509295509295909350565b600060208284031215610ed157610ed0610c55565b5b6000610edf84828501610c76565b91505092915050565b600060c083016000830151610f0060008601826109f8565b506020830151610f136020860182610a39565b5060408301518482036040860152610f2b8282610aa8565b91505060608301518482036060860152610f458282610aa8565b91505060808301518482036080860152610f5f8282610aa8565b91505060a0830151610f7460a0860182610aed565b508091505092915050565b60006020820190508181036000830152610f998184610ee8565b905092915050565b60008060008060808587031215610fbb57610fba610c55565b5b6000610fc987828801610ca2565b945050602085013567ffffffffffffffff811115610fea57610fe9610c5a565b5b610ff687828801610dbe565b935050604085013567ffffffffffffffff81111561101757611016610c5a565b5b61102387828801610dbe565b925050606085013567ffffffffffffffff81111561104457611043610c5a565b5b61105087828801610dbe565b91505092959194509250565b7f4e487b7100000000000000000000000000000000000000000000000000000000600052602260045260246000fd5b600060028204905060018216806110a357607f821691505b602082108114156110b7576110b661105c565b5b50919050565b7f4e487b7100000000000000000000000000000000000000000000000000000000600052603260045260246000fd5b7f4e487b7100000000000000000000000000000000000000000000000000000000600052601160045260246000fd5b6000611126826109ee565b91507fffffffffffffffffffffffffffffffffffffffffffffffffffffffffffffffff821415611159576111586110ec565b5b60018201905091905056fea2646970667358221220b010bda5432b1115acfc69b73a252eb32b8f813e87bd0a59e947645bf4a4e98c64736f6c634300080a0033",
  "immutableReferences": {},
  "source": "//SPDX-License-Identifier: MIT\r\n\r\npragma solidity >=0.4.22 <0.9.0;\r\n\r\ncontract Posts {\r\n\r\n    struct Post {\r\n        uint id;\r\n        address charityOrganizationAddress;\r\n        string headline;\r\n        string description;\r\n        string readMoreUrl;\r\n        bool deleted;\r\n    }\r\n\r\n    Post[] private posts;\r\n    uint count = 0;\r\n\r\n    function addPost(address charityOrganizationAddress, string memory headline, string memory description, string memory readMoreUrl) public {\r\n        posts.push(Post(count, charityOrganizationAddress, headline, description, readMoreUrl, false));\r\n        count++;\r\n    }\r\n\r\n    function updatePost(uint id, address charityOrganizationAddress, string memory headline, string memory description, string memory readMoreUrl) public {\r\n        posts[id] =  Post(id, charityOrganizationAddress, headline, description, readMoreUrl, false);\r\n    }\r\n\r\n    function deletePostById(uint id) public {\r\n        posts[id].deleted = true;\r\n    }\r\n\r\n    function getPostById(uint id) view \r\n                                  public \r\n                                  returns (Post memory) {\r\n        return posts[id];\r\n    }\r\n\r\n    function getAllPosts() view \r\n                           public \r\n                           returns (Post[] memory) {\r\n        return posts;\r\n    }\r\n}",
  "sourcePath": "C:\\D\\projects\\licenta\\blockchainApp\\truffle\\contracts\\Posts.sol",
  "compiler": {
    "name": "solc",
    "version": "0.8.10+commit.fc410830.Emscripten.clang"
  },
  "schemaVersion": "3.4.7",
  "updatedAt": "2022-05-19T23:08:55.197Z",
  "networkType": "ethereum",
  "devdoc": {
    "kind": "dev",
    "methods": {},
    "version": 1
  },
  "userdoc": {
    "kind": "user",
    "methods": {},
    "version": 1
  }
}