{
  "contractName": "Transfer",
  "abi": [
    {
      "inputs": [],
      "stateMutability": "payable",
      "type": "constructor",
      "payable": true
    },
    {
      "anonymous": false,
      "inputs": [
        {
          "indexed": false,
          "internalType": "address",
          "name": "accountSender",
          "type": "address"
        },
        {
          "indexed": false,
          "internalType": "address",
          "name": "accountReceiver",
          "type": "address"
        },
        {
          "indexed": false,
          "internalType": "uint256",
          "name": "amount",
          "type": "uint256"
        },
        {
          "indexed": false,
          "internalType": "uint64",
          "name": "postId",
          "type": "uint64"
        },
        {
          "indexed": false,
          "internalType": "string",
          "name": "message",
          "type": "string"
        }
      ],
      "name": "DonationEvent",
      "type": "event"
    },
    {
      "inputs": [
        {
          "internalType": "address payable",
          "name": "_to",
          "type": "address"
        },
        {
          "internalType": "string",
          "name": "message",
          "type": "string"
        },
        {
          "internalType": "uint64",
          "name": "postId",
          "type": "uint64"
        }
      ],
      "name": "pay",
      "outputs": [],
      "stateMutability": "payable",
      "type": "function",
      "payable": true
    },
    {
      "inputs": [],
      "name": "getDonations",
      "outputs": [
        {
          "components": [
            {
              "internalType": "address",
              "name": "accountSender",
              "type": "address"
            },
            {
              "internalType": "address",
              "name": "accountReceiver",
              "type": "address"
            },
            {
              "internalType": "uint256",
              "name": "amount",
              "type": "uint256"
            },
            {
              "internalType": "uint64",
              "name": "postId",
              "type": "uint64"
            },
            {
              "internalType": "string",
              "name": "message",
              "type": "string"
            }
          ],
          "internalType": "struct Transfer.Donation[]",
          "name": "",
          "type": "tuple[]"
        }
      ],
      "stateMutability": "view",
      "type": "function",
      "constant": true
    }
  ],
  "bytecode": "0x6080604052610bd2806100136000396000f3fe6080604052600436106100295760003560e01c806374b65a071461002e578063e25f84161461004a575b600080fd5b610048600480360381019061004391906106a4565b610075565b005b34801561005657600080fd5b5061005f61031b565b60405161006c9190610932565b60405180910390f35b60008473ffffffffffffffffffffffffffffffffffffffff163460405161009b90610985565b60006040518083038185875af1925050503d80600081146100d8576040519150601f19603f3d011682016040523d82523d6000602084013e6100dd565b606091505b5050905080610121576040517f08c379a0000000000000000000000000000000000000000000000000000000008152600401610118906109f7565b60405180910390fd5b60006040518060a001604052803373ffffffffffffffffffffffffffffffffffffffff1681526020018773ffffffffffffffffffffffffffffffffffffffff1681526020013481526020018467ffffffffffffffff16815260200186868080601f016020809104026020016040519081016040528093929190818152602001838380828437600081840152601f19601f82011690508083019250505050505050815250908060018154018082558091505060019003906000526020600020906005020160009091909190915060008201518160000160006101000a81548173ffffffffffffffffffffffffffffffffffffffff021916908373ffffffffffffffffffffffffffffffffffffffff16021790555060208201518160010160006101000a81548173ffffffffffffffffffffffffffffffffffffffff021916908373ffffffffffffffffffffffffffffffffffffffff1602179055506040820151816002015560608201518160030160006101000a81548167ffffffffffffffff021916908367ffffffffffffffff16021790555060808201518160040190805190602001906102d09291906104f4565b5050507f1199a012721f4d065f459dbd23977db59c14ecc3b0567d530bee6bb9f4ab09d833863485888860405161030c96959493929190610adf565b60405180910390a15050505050565b60606000805480602002602001604051908101604052809291908181526020016000905b828210156104eb57838290600052602060002090600502016040518060a00160405290816000820160009054906101000a900473ffffffffffffffffffffffffffffffffffffffff1673ffffffffffffffffffffffffffffffffffffffff1673ffffffffffffffffffffffffffffffffffffffff1681526020016001820160009054906101000a900473ffffffffffffffffffffffffffffffffffffffff1673ffffffffffffffffffffffffffffffffffffffff1673ffffffffffffffffffffffffffffffffffffffff168152602001600282015481526020016003820160009054906101000a900467ffffffffffffffff1667ffffffffffffffff1667ffffffffffffffff16815260200160048201805461045a90610b6a565b80601f016020809104026020016040519081016040528092919081815260200182805461048690610b6a565b80156104d35780601f106104a8576101008083540402835291602001916104d3565b820191906000526020600020905b8154815290600101906020018083116104b657829003601f168201915b5050505050815250508152602001906001019061033f565b50505050905090565b82805461050090610b6a565b90600052602060002090601f0160209004810192826105225760008555610569565b82601f1061053b57805160ff1916838001178555610569565b82800160010185558215610569579182015b8281111561056857825182559160200191906001019061054d565b5b509050610576919061057a565b5090565b5b8082111561059357600081600090555060010161057b565b5090565b600080fd5b600080fd5b600073ffffffffffffffffffffffffffffffffffffffff82169050919050565b60006105cc826105a1565b9050919050565b6105dc816105c1565b81146105e757600080fd5b50565b6000813590506105f9816105d3565b92915050565b600080fd5b600080fd5b600080fd5b60008083601f840112610624576106236105ff565b5b8235905067ffffffffffffffff81111561064157610640610604565b5b60208301915083600182028301111561065d5761065c610609565b5b9250929050565b600067ffffffffffffffff82169050919050565b61068181610664565b811461068c57600080fd5b50565b60008135905061069e81610678565b92915050565b600080600080606085870312156106be576106bd610597565b5b60006106cc878288016105ea565b945050602085013567ffffffffffffffff8111156106ed576106ec61059c565b5b6106f98782880161060e565b9350935050604061070c8782880161068f565b91505092959194509250565b600081519050919050565b600082825260208201905092915050565b6000819050602082019050919050565b600061074f826105a1565b9050919050565b61075f81610744565b82525050565b6000819050919050565b61077881610765565b82525050565b61078781610664565b82525050565b600081519050919050565b600082825260208201905092915050565b60005b838110156107c75780820151818401526020810190506107ac565b838111156107d6576000848401525b50505050565b6000601f19601f8301169050919050565b60006107f88261078d565b6108028185610798565b93506108128185602086016107a9565b61081b816107dc565b840191505092915050565b600060a08301600083015161083e6000860182610756565b5060208301516108516020860182610756565b506040830151610864604086018261076f565b506060830151610877606086018261077e565b506080830151848203608086015261088f82826107ed565b9150508091505092915050565b60006108a88383610826565b905092915050565b6000602082019050919050565b60006108c882610718565b6108d28185610723565b9350836020820285016108e485610734565b8060005b858110156109205784840389528151610901858261089c565b945061090c836108b0565b925060208a019950506001810190506108e8565b50829750879550505050505092915050565b6000602082019050818103600083015261094c81846108bd565b905092915050565b600081905092915050565b50565b600061096f600083610954565b915061097a8261095f565b600082019050919050565b600061099082610962565b9150819050919050565b600082825260208201905092915050565b7f4661696c656420746f2073656e64204574686572000000000000000000000000600082015250565b60006109e160148361099a565b91506109ec826109ab565b602082019050919050565b60006020820190508181036000830152610a10816109d4565b9050919050565b610a2081610744565b82525050565b6000819050919050565b6000610a4b610a46610a41846105a1565b610a26565b6105a1565b9050919050565b6000610a5d82610a30565b9050919050565b6000610a6f82610a52565b9050919050565b610a7f81610a64565b82525050565b610a8e81610765565b82525050565b610a9d81610664565b82525050565b82818337600083830152505050565b6000610abe838561099a565b9350610acb838584610aa3565b610ad4836107dc565b840190509392505050565b600060a082019050610af46000830189610a17565b610b016020830188610a76565b610b0e6040830187610a85565b610b1b6060830186610a94565b8181036080830152610b2e818486610ab2565b9050979650505050505050565b7f4e487b7100000000000000000000000000000000000000000000000000000000600052602260045260246000fd5b60006002820490506001821680610b8257607f821691505b60208210811415610b9657610b95610b3b565b5b5091905056fea2646970667358221220de4f89caed2f65eda35b1377918f985a89b34d60c4353ff9c74b9e1e12737b7964736f6c634300080a0033",
  "immutableReferences": {},
  "source": "//SPDX-License-Identifier: MIT\r\n\r\npragma solidity >=0.4.22 <0.9.0;\r\n\r\npragma experimental ABIEncoderV2;\r\n\r\ncontract Transfer {\r\n\r\n    constructor() payable {}\r\n\r\n    struct Donation {\r\n        address accountSender;\r\n        address accountReceiver;\r\n        uint256 amount;\r\n        uint64 postId;\r\n        string message;\r\n    }\r\n\r\n    Donation[] private donations;\r\n    event DonationEvent(address accountSender,\r\n                    address accountReceiver,\r\n                    uint256 amount,\r\n                    uint64 postId,\r\n                    string message);\r\n\r\n    function pay(address payable _to, string calldata message, uint64 postId) public\r\n                                                                              payable {\r\n\r\n        (bool sent, ) = _to.call{ value: msg.value }(\"\");\r\n        require(sent, \"Failed to send Ether\");\r\n\r\n        donations.push(Donation({\r\n            accountSender: msg.sender,\r\n            accountReceiver: _to,\r\n            amount: msg.value,\r\n            postId: postId,\r\n            message: message\r\n        }));\r\n        emit DonationEvent(msg.sender, _to, msg.value, postId, message);\r\n    }\r\n\r\n    function getDonations() external \r\n                            view \r\n                            returns (Donation[] memory) {\r\n        return donations;\r\n    }\r\n}",
  "sourcePath": "C:\\D\\projects\\licenta\\blockchainApp\\truffle\\contracts\\Transfer.sol",
  "compiler": {
    "name": "solc",
    "version": "0.8.10+commit.fc410830.Emscripten.clang"
  },
  "schemaVersion": "3.4.7",
  "updatedAt": "2022-05-18T11:39:44.743Z",
  "networkType": "ethereum",
  "devdoc": {
    "kind": "dev",
    "methods": {},
    "version": 1
  },
  "userdoc": {
    "kind": "user",
    "methods": {},
    "version": 1
  }
}