{
  "contractName": "Transfer",
  "abi": [
    {
      "inputs": [],
      "stateMutability": "payable",
      "type": "constructor",
      "payable": true
    },
    {
      "anonymous": false,
      "inputs": [],
      "name": "DonationEvent",
      "type": "event"
    },
    {
      "inputs": [
        {
          "internalType": "address payable",
          "name": "_to",
          "type": "address"
        },
        {
          "internalType": "string",
          "name": "message",
          "type": "string"
        },
        {
          "internalType": "uint64",
          "name": "postId",
          "type": "uint64"
        }
      ],
      "name": "pay",
      "outputs": [],
      "stateMutability": "payable",
      "type": "function",
      "payable": true
    },
    {
      "inputs": [],
      "name": "getDonations",
      "outputs": [
        {
          "components": [
            {
              "internalType": "address",
              "name": "accountSender",
              "type": "address"
            },
            {
              "internalType": "address",
              "name": "accountReceiver",
              "type": "address"
            },
            {
              "internalType": "uint256",
              "name": "amount",
              "type": "uint256"
            },
            {
              "internalType": "uint64",
              "name": "postId",
              "type": "uint64"
            },
            {
              "internalType": "string",
              "name": "message",
              "type": "string"
            }
          ],
          "internalType": "struct Transfer.Donation[]",
          "name": "",
          "type": "tuple[]"
        }
      ],
      "stateMutability": "view",
      "type": "function",
      "constant": true
    }
  ],
  "bytecode": "0x6080604052610a99806100136000396000f3fe6080604052600436106100295760003560e01c806374b65a071461002e578063e25f84161461004a575b600080fd5b6100486004803603810190610043919061068f565b610075565b005b34801561005657600080fd5b5061005f610306565b60405161006c919061091d565b60405180910390f35b60008473ffffffffffffffffffffffffffffffffffffffff163460405161009b90610970565b60006040518083038185875af1925050503d80600081146100d8576040519150601f19603f3d011682016040523d82523d6000602084013e6100dd565b606091505b5050905080610121576040517f08c379a0000000000000000000000000000000000000000000000000000000008152600401610118906109e2565b60405180910390fd5b60006040518060a001604052803373ffffffffffffffffffffffffffffffffffffffff1681526020018773ffffffffffffffffffffffffffffffffffffffff1681526020013481526020018467ffffffffffffffff16815260200186868080601f016020809104026020016040519081016040528093929190818152602001838380828437600081840152601f19601f82011690508083019250505050505050815250908060018154018082558091505060019003906000526020600020906005020160009091909190915060008201518160000160006101000a81548173ffffffffffffffffffffffffffffffffffffffff021916908373ffffffffffffffffffffffffffffffffffffffff16021790555060208201518160010160006101000a81548173ffffffffffffffffffffffffffffffffffffffff021916908373ffffffffffffffffffffffffffffffffffffffff1602179055506040820151816002015560608201518160030160006101000a81548167ffffffffffffffff021916908367ffffffffffffffff16021790555060808201518160040190805190602001906102d09291906104df565b5050507f24f49c9f0c65d235cc5fe1b2fda693450779e4351f4da8a4caf5544132dc8bf060405160405180910390a15050505050565b60606000805480602002602001604051908101604052809291908181526020016000905b828210156104d657838290600052602060002090600502016040518060a00160405290816000820160009054906101000a900473ffffffffffffffffffffffffffffffffffffffff1673ffffffffffffffffffffffffffffffffffffffff1673ffffffffffffffffffffffffffffffffffffffff1681526020016001820160009054906101000a900473ffffffffffffffffffffffffffffffffffffffff1673ffffffffffffffffffffffffffffffffffffffff1673ffffffffffffffffffffffffffffffffffffffff168152602001600282015481526020016003820160009054906101000a900467ffffffffffffffff1667ffffffffffffffff1667ffffffffffffffff16815260200160048201805461044590610a31565b80601f016020809104026020016040519081016040528092919081815260200182805461047190610a31565b80156104be5780601f10610493576101008083540402835291602001916104be565b820191906000526020600020905b8154815290600101906020018083116104a157829003601f168201915b5050505050815250508152602001906001019061032a565b50505050905090565b8280546104eb90610a31565b90600052602060002090601f01602090048101928261050d5760008555610554565b82601f1061052657805160ff1916838001178555610554565b82800160010185558215610554579182015b82811115610553578251825591602001919060010190610538565b5b5090506105619190610565565b5090565b5b8082111561057e576000816000905550600101610566565b5090565b600080fd5b600080fd5b600073ffffffffffffffffffffffffffffffffffffffff82169050919050565b60006105b78261058c565b9050919050565b6105c7816105ac565b81146105d257600080fd5b50565b6000813590506105e4816105be565b92915050565b600080fd5b600080fd5b600080fd5b60008083601f84011261060f5761060e6105ea565b5b8235905067ffffffffffffffff81111561062c5761062b6105ef565b5b602083019150836001820283011115610648576106476105f4565b5b9250929050565b600067ffffffffffffffff82169050919050565b61066c8161064f565b811461067757600080fd5b50565b60008135905061068981610663565b92915050565b600080600080606085870312156106a9576106a8610582565b5b60006106b7878288016105d5565b945050602085013567ffffffffffffffff8111156106d8576106d7610587565b5b6106e4878288016105f9565b935093505060406106f78782880161067a565b91505092959194509250565b600081519050919050565b600082825260208201905092915050565b6000819050602082019050919050565b600061073a8261058c565b9050919050565b61074a8161072f565b82525050565b6000819050919050565b61076381610750565b82525050565b6107728161064f565b82525050565b600081519050919050565b600082825260208201905092915050565b60005b838110156107b2578082015181840152602081019050610797565b838111156107c1576000848401525b50505050565b6000601f19601f8301169050919050565b60006107e382610778565b6107ed8185610783565b93506107fd818560208601610794565b610806816107c7565b840191505092915050565b600060a0830160008301516108296000860182610741565b50602083015161083c6020860182610741565b50604083015161084f604086018261075a565b5060608301516108626060860182610769565b506080830151848203608086015261087a82826107d8565b9150508091505092915050565b60006108938383610811565b905092915050565b6000602082019050919050565b60006108b382610703565b6108bd818561070e565b9350836020820285016108cf8561071f565b8060005b8581101561090b57848403895281516108ec8582610887565b94506108f78361089b565b925060208a019950506001810190506108d3565b50829750879550505050505092915050565b6000602082019050818103600083015261093781846108a8565b905092915050565b600081905092915050565b50565b600061095a60008361093f565b91506109658261094a565b600082019050919050565b600061097b8261094d565b9150819050919050565b600082825260208201905092915050565b7f4661696c656420746f2073656e64204574686572000000000000000000000000600082015250565b60006109cc601483610985565b91506109d782610996565b602082019050919050565b600060208201905081810360008301526109fb816109bf565b9050919050565b7f4e487b7100000000000000000000000000000000000000000000000000000000600052602260045260246000fd5b60006002820490506001821680610a4957607f821691505b60208210811415610a5d57610a5c610a02565b5b5091905056fea26469706673582212202259c6cf4b85fe344871fba3908a3616a89bb2da5b58f3a8b0f5edb72c3178cf64736f6c634300080a0033",
  "immutableReferences": {},
  "source": "//SPDX-License-Identifier: MIT\r\n\r\npragma solidity >=0.4.22 <0.9.0;\r\n\r\ncontract Transfer {\r\n\r\n    constructor() payable {}\r\n\r\n    struct Donation {\r\n        address accountSender;\r\n        address accountReceiver;\r\n        uint256 amount;\r\n        uint64 postId;\r\n        string message;\r\n    }\r\n\r\n    Donation[] private donations;\r\n    event DonationEvent();\r\n\r\n    function pay(address payable _to, string calldata message, uint64 postId) public\r\n                                                                              payable {\r\n\r\n        (bool sent, ) = _to.call{ value: msg.value }(\"\");\r\n        require(sent, \"Failed to send Ether\");\r\n\r\n        donations.push(Donation({\r\n            accountSender: msg.sender,\r\n            accountReceiver: _to,\r\n            amount: msg.value,\r\n            postId: postId,\r\n            message: message\r\n        }));\r\n\r\n        emit DonationEvent();\r\n    }\r\n\r\n    function getDonations() external \r\n                            view \r\n                            returns (Donation[] memory) {\r\n        return donations;\r\n    }\r\n}",
  "sourcePath": "C:\\D\\projects\\licenta\\blockchainApp\\truffle\\contracts\\Transfer.sol",
  "compiler": {
    "name": "solc",
    "version": "0.8.10+commit.fc410830.Emscripten.clang"
  },
  "schemaVersion": "3.4.7",
  "updatedAt": "2022-05-19T13:15:14.349Z",
  "networkType": "ethereum",
  "devdoc": {
    "kind": "dev",
    "methods": {},
    "version": 1
  },
  "userdoc": {
    "kind": "user",
    "methods": {},
    "version": 1
  }
}